{
  "_format": "hh-sol-artifact-1",
  "contractName": "RecommendationPortal",
  "sourceName": "contracts/RecommendationPortal.sol",
  "abi": [
    {
      "inputs": [],
      "stateMutability": "payable",
      "type": "constructor"
    },
    {
      "anonymous": false,
      "inputs": [
        {
          "indexed": false,
          "internalType": "address",
          "name": "sender",
          "type": "address"
        },
        {
          "indexed": false,
          "internalType": "string",
          "name": "aboutMe",
          "type": "string"
        }
      ],
      "name": "AboutMeAdded",
      "type": "event"
    },
    {
      "inputs": [],
      "name": "LastEmployee",
      "outputs": [
        {
          "internalType": "address",
          "name": "",
          "type": "address"
        }
      ],
      "stateMutability": "view",
      "type": "function"
    },
    {
      "inputs": [],
      "name": "LastSentAboutMeTimeStamp",
      "outputs": [
        {
          "internalType": "uint256",
          "name": "",
          "type": "uint256"
        }
      ],
      "stateMutability": "view",
      "type": "function"
    },
    {
      "inputs": [
        {
          "internalType": "uint256",
          "name": "",
          "type": "uint256"
        }
      ],
      "name": "allSenderAddresses",
      "outputs": [
        {
          "internalType": "address",
          "name": "",
          "type": "address"
        }
      ],
      "stateMutability": "view",
      "type": "function"
    },
    {
      "inputs": [],
      "name": "getAllAboutMes",
      "outputs": [
        {
          "components": [
            {
              "internalType": "address",
              "name": "sender",
              "type": "address"
            },
            {
              "internalType": "string",
              "name": "AboutMe",
              "type": "string"
            },
            {
              "internalType": "uint256",
              "name": "TimeStamp",
              "type": "uint256"
            }
          ],
          "internalType": "struct RecommendationPortal.Wave[]",
          "name": "",
          "type": "tuple[]"
        }
      ],
      "stateMutability": "view",
      "type": "function"
    },
    {
      "inputs": [],
      "name": "getLastWavedAddress",
      "outputs": [
        {
          "internalType": "address",
          "name": "",
          "type": "address"
        }
      ],
      "stateMutability": "view",
      "type": "function"
    },
    {
      "inputs": [],
      "name": "getLastWavedTime",
      "outputs": [
        {
          "internalType": "uint256",
          "name": "",
          "type": "uint256"
        }
      ],
      "stateMutability": "view",
      "type": "function"
    },
    {
      "inputs": [],
      "name": "getSendersList",
      "outputs": [
        {
          "internalType": "address[]",
          "name": "",
          "type": "address[]"
        }
      ],
      "stateMutability": "view",
      "type": "function"
    },
    {
      "inputs": [],
      "name": "getTotalAboutMes",
      "outputs": [
        {
          "internalType": "uint256",
          "name": "",
          "type": "uint256"
        }
      ],
      "stateMutability": "view",
      "type": "function"
    },
    {
      "inputs": [
        {
          "internalType": "string",
          "name": "aboutme",
          "type": "string"
        }
      ],
      "name": "sendAboutMe",
      "outputs": [],
      "stateMutability": "nonpayable",
      "type": "function"
    }
  ],
  "bytecode": "0x6080604052611443806100136000396000f3fe608060405234801561001057600080fd5b50600436106100935760003560e01c8063a53c79dd11610066578063a53c79dd1461010e578063b3b82f3e1461012c578063caf35c491461014a578063e0fe048f1461017a578063eac7872e1461019857610093565b8063136621a7146100985780635b603ba0146100b65780638647380e146100d45780639fb1e62f146100f0575b600080fd5b6100a06101b6565b6040516100ad9190610f28565b60405180910390f35b6100be610244565b6040516100cb9190611051565b60405180910390f35b6100ee60048036038101906100e99190610bf8565b61024a565b005b6100f8610546565b6040516101059190611051565b60405180910390f35b610116610591565b6040516101239190610edd565b60405180910390f35b6101346105bb565b6040516101419190610f4a565b60405180910390f35b610164600480360381019061015f9190610c39565b61070c565b6040516101719190610edd565b60405180910390f35b61018261074b565b60405161018f9190610edd565b60405180910390f35b6101a0610771565b6040516101ad9190611051565b60405180910390f35b6060600480548060200260200160405190810160405280929190818152602001828054801561023a57602002820191906000526020600020905b8160009054906101000a900473ffffffffffffffffffffffffffffffffffffffff1673ffffffffffffffffffffffffffffffffffffffff16815260200190600101908083116101f0575b5050505050905090565b60035481565b426003819055506001600080828254610263919061116c565b9250508190555033600260006101000a81548173ffffffffffffffffffffffffffffffffffffffff021916908373ffffffffffffffffffffffffffffffffffffffff1602179055506102b5338261077b565b6102f56040518060400160405280601f81526020017f2573206a7573742073656e7420796f7520616e2061626f7574206d652025730081525033836108d8565b60646001544244610306919061116c565b610310919061116c565b61031a91906112a3565b6001819055506103616040518060400160405280601b81526020017f72616e646f6d206e756d6265722067656e6572617465643a2025640000000000815250600154610977565b6032600154116104a7576103aa6040518060400160405280600981526020017f5072697a6520776f6e000000000000000000000000000000000000000000000081525033610a13565b6000655af3107a40009050478111156103f8576040517f08c379a00000000000000000000000000000000000000000000000000000000081526004016103ef90611011565b60405180910390fd5b60003373ffffffffffffffffffffffffffffffffffffffff168260405161041e90610ec8565b60006040518083038185875af1925050503d806000811461045b576040519150601f19603f3d011682016040523d82523d6000602084013e610460565b606091505b50509050806104a4576040517f08c379a000000000000000000000000000000000000000000000000000000000815260040161049b90611031565b60405180910390fd5b50505b6004339080600181540180825580915050600190039060005260206000200160009091909190916101000a81548173ffffffffffffffffffffffffffffffffffffffff021916908373ffffffffffffffffffffffffffffffffffffffff1602179055507ff90776af5ac0ac5b8d3e7931f57523e37d71718e437df1eb090cde6b200426e1338260405161053b929190610ef8565b60405180910390a150565b60006105896040518060400160405280601e81526020017f5765206861766520256420706f74656e7469616c20656d706c6f796565730000815250600054610977565b600054905090565b6000600260009054906101000a900473ffffffffffffffffffffffffffffffffffffffff16905090565b60606005805480602002602001604051908101604052809291908181526020016000905b8282101561070357838290600052602060002090600302016040518060600160405290816000820160009054906101000a900473ffffffffffffffffffffffffffffffffffffffff1673ffffffffffffffffffffffffffffffffffffffff1673ffffffffffffffffffffffffffffffffffffffff16815260200160018201805461066890611240565b80601f016020809104026020016040519081016040528092919081815260200182805461069490611240565b80156106e15780601f106106b6576101008083540402835291602001916106e1565b820191906000526020600020905b8154815290600101906020018083116106c457829003601f168201915b50505050508152602001600282015481525050815260200190600101906105df565b50505050905090565b6004818154811061071c57600080fd5b906000526020600020016000915054906101000a900473ffffffffffffffffffffffffffffffffffffffff1681565b600260009054906101000a900473ffffffffffffffffffffffffffffffffffffffff1681565b6000600354905090565b80600660008473ffffffffffffffffffffffffffffffffffffffff1673ffffffffffffffffffffffffffffffffffffffff16815260200190815260200160002090805190602001906107ce929190610ad8565b50600560405180606001604052808473ffffffffffffffffffffffffffffffffffffffff16815260200183815260200142815250908060018154018082558091505060019003906000526020600020906003020160009091909190915060008201518160000160006101000a81548173ffffffffffffffffffffffffffffffffffffffff021916908373ffffffffffffffffffffffffffffffffffffffff160217905550602082015181600101908051906020019061088e929190610ad8565b506040820151816002015550507ff90776af5ac0ac5b8d3e7931f57523e37d71718e437df1eb090cde6b200426e182826040516108cc929190610ef8565b60405180910390a15050565b6109728383836040516024016108f093929190610f9c565b6040516020818303038152906040527fe0e9ad4f000000000000000000000000000000000000000000000000000000007bffffffffffffffffffffffffffffffffffffffffffffffffffffffff19166020820180517bffffffffffffffffffffffffffffffffffffffffffffffffffffffff8381831617835250505050610aaf565b505050565b610a0f828260405160240161098d929190610fe1565b6040516020818303038152906040527f9710a9d0000000000000000000000000000000000000000000000000000000007bffffffffffffffffffffffffffffffffffffffffffffffffffffffff19166020820180517bffffffffffffffffffffffffffffffffffffffffffffffffffffffff8381831617835250505050610aaf565b5050565b610aab8282604051602401610a29929190610f6c565b6040516020818303038152906040527f319af333000000000000000000000000000000000000000000000000000000007bffffffffffffffffffffffffffffffffffffffffffffffffffffffff19166020820180517bffffffffffffffffffffffffffffffffffffffffffffffffffffffff8381831617835250505050610aaf565b5050565b60008151905060006a636f6e736f6c652e6c6f679050602083016000808483855afa5050505050565b828054610ae490611240565b90600052602060002090601f016020900481019282610b065760008555610b4d565b82601f10610b1f57805160ff1916838001178555610b4d565b82800160010185558215610b4d579182015b82811115610b4c578251825591602001919060010190610b31565b5b509050610b5a9190610b5e565b5090565b5b80821115610b77576000816000905550600101610b5f565b5090565b6000610b8e610b8984611091565b61106c565b905082815260208101848484011115610ba657600080fd5b610bb18482856111fe565b509392505050565b600082601f830112610bca57600080fd5b8135610bda848260208601610b7b565b91505092915050565b600081359050610bf2816113f6565b92915050565b600060208284031215610c0a57600080fd5b600082013567ffffffffffffffff811115610c2457600080fd5b610c3084828501610bb9565b91505092915050565b600060208284031215610c4b57600080fd5b6000610c5984828501610be3565b91505092915050565b6000610c6e8383610c8e565b60208301905092915050565b6000610c868383610e5a565b905092915050565b610c97816111c2565b82525050565b610ca6816111c2565b82525050565b6000610cb7826110e2565b610cc1818561111d565b9350610ccc836110c2565b8060005b83811015610cfd578151610ce48882610c62565b9750610cef83611103565b925050600181019050610cd0565b5085935050505092915050565b6000610d15826110ed565b610d1f818561112e565b935083602082028501610d31856110d2565b8060005b85811015610d6d5784840389528151610d4e8582610c7a565b9450610d5983611110565b925060208a01995050600181019050610d35565b50829750879550505050505092915050565b6000610d8a826110f8565b610d94818561114a565b9350610da481856020860161120d565b610dad81611390565b840191505092915050565b6000610dc3826110f8565b610dcd818561115b565b9350610ddd81856020860161120d565b610de681611390565b840191505092915050565b6000610dfe60118361115b565b9150610e09826113a1565b602082019050919050565b6000610e2160108361115b565b9150610e2c826113ca565b602082019050919050565b6000610e4460008361113f565b9150610e4f826113f3565b600082019050919050565b6000606083016000830151610e726000860182610c8e565b5060208301518482036020860152610e8a8282610d7f565b9150506040830151610e9f6040860182610eaa565b508091505092915050565b610eb3816111f4565b82525050565b610ec2816111f4565b82525050565b6000610ed382610e37565b9150819050919050565b6000602082019050610ef26000830184610c9d565b92915050565b6000604082019050610f0d6000830185610c9d565b8181036020830152610f1f8184610db8565b90509392505050565b60006020820190508181036000830152610f428184610cac565b905092915050565b60006020820190508181036000830152610f648184610d0a565b905092915050565b60006040820190508181036000830152610f868185610db8565b9050610f956020830184610c9d565b9392505050565b60006060820190508181036000830152610fb68186610db8565b9050610fc56020830185610c9d565b8181036040830152610fd78184610db8565b9050949350505050565b60006040820190508181036000830152610ffb8185610db8565b905061100a6020830184610eb9565b9392505050565b6000602082019050818103600083015261102a81610df1565b9050919050565b6000602082019050818103600083015261104a81610e14565b9050919050565b60006020820190506110666000830184610eb9565b92915050565b6000611076611087565b90506110828282611272565b919050565b6000604051905090565b600067ffffffffffffffff8211156110ac576110ab611361565b5b6110b582611390565b9050602081019050919050565b6000819050602082019050919050565b6000819050602082019050919050565b600081519050919050565b600081519050919050565b600081519050919050565b6000602082019050919050565b6000602082019050919050565b600082825260208201905092915050565b600082825260208201905092915050565b600081905092915050565b600082825260208201905092915050565b600082825260208201905092915050565b6000611177826111f4565b9150611182836111f4565b9250827fffffffffffffffffffffffffffffffffffffffffffffffffffffffffffffffff038211156111b7576111b66112d4565b5b828201905092915050565b60006111cd826111d4565b9050919050565b600073ffffffffffffffffffffffffffffffffffffffff82169050919050565b6000819050919050565b82818337600083830152505050565b60005b8381101561122b578082015181840152602081019050611210565b8381111561123a576000848401525b50505050565b6000600282049050600182168061125857607f821691505b6020821081141561126c5761126b611332565b5b50919050565b61127b82611390565b810181811067ffffffffffffffff8211171561129a57611299611361565b5b80604052505050565b60006112ae826111f4565b91506112b9836111f4565b9250826112c9576112c8611303565b5b828206905092915050565b7f4e487b7100000000000000000000000000000000000000000000000000000000600052601160045260246000fd5b7f4e487b7100000000000000000000000000000000000000000000000000000000600052601260045260246000fd5b7f4e487b7100000000000000000000000000000000000000000000000000000000600052602260045260246000fd5b7f4e487b7100000000000000000000000000000000000000000000000000000000600052604160045260246000fd5b6000601f19601f8301169050919050565b7f496e737566666369656e742066756e647a000000000000000000000000000000600082015250565b7f526577617264206e6f742073656e742100000000000000000000000000000000600082015250565b50565b6113ff816111f4565b811461140a57600080fd5b5056fea26469706673582212208758ca5e36344e99e3022e9ab35ead01f86c0e01f751b2c5bef6a2c6c79875b364736f6c63430008040033",
  "linkReferences": {},
  "deployedLinkReferences": {}
}