{
  "_format": "hh-sol-artifact-1",
  "contractName": "RecommendationPortal",
  "sourceName": "contracts/RecommendationPortal.sol",
  "abi": [
    {
      "inputs": [],
      "stateMutability": "payable",
      "type": "constructor"
    },
    {
      "anonymous": false,
      "inputs": [
        {
          "indexed": false,
          "internalType": "address",
          "name": "sender",
          "type": "address"
        },
        {
          "indexed": false,
          "internalType": "string",
          "name": "aboutMe",
          "type": "string"
        }
      ],
      "name": "AboutMeAdded",
      "type": "event"
    },
    {
      "inputs": [],
      "name": "LastEmployee",
      "outputs": [
        {
          "internalType": "address",
          "name": "",
          "type": "address"
        }
      ],
      "stateMutability": "view",
      "type": "function"
    },
    {
      "inputs": [],
      "name": "LastSentAboutMeTimeStamp",
      "outputs": [
        {
          "internalType": "uint256",
          "name": "",
          "type": "uint256"
        }
      ],
      "stateMutability": "view",
      "type": "function"
    },
    {
      "inputs": [
        {
          "internalType": "uint256",
          "name": "",
          "type": "uint256"
        }
      ],
      "name": "allSenderAddresses",
      "outputs": [
        {
          "internalType": "address",
          "name": "",
          "type": "address"
        }
      ],
      "stateMutability": "view",
      "type": "function"
    },
    {
      "inputs": [],
      "name": "getAllAboutMes",
      "outputs": [
        {
          "components": [
            {
              "internalType": "address",
              "name": "sender",
              "type": "address"
            },
            {
              "internalType": "string",
              "name": "AboutMe",
              "type": "string"
            },
            {
              "internalType": "uint256",
              "name": "TimeStamp",
              "type": "uint256"
            }
          ],
          "internalType": "struct RecommendationPortal.Wave[]",
          "name": "",
          "type": "tuple[]"
        }
      ],
      "stateMutability": "view",
      "type": "function"
    },
    {
      "inputs": [],
      "name": "getLastWavedAddress",
      "outputs": [
        {
          "internalType": "address",
          "name": "",
          "type": "address"
        }
      ],
      "stateMutability": "view",
      "type": "function"
    },
    {
      "inputs": [],
      "name": "getLastWavedTime",
      "outputs": [
        {
          "internalType": "uint256",
          "name": "",
          "type": "uint256"
        }
      ],
      "stateMutability": "view",
      "type": "function"
    },
    {
      "inputs": [],
      "name": "getSendersList",
      "outputs": [
        {
          "internalType": "address[]",
          "name": "",
          "type": "address[]"
        }
      ],
      "stateMutability": "view",
      "type": "function"
    },
    {
      "inputs": [],
      "name": "getTotalAboutMes",
      "outputs": [
        {
          "internalType": "uint256",
          "name": "",
          "type": "uint256"
        }
      ],
      "stateMutability": "view",
      "type": "function"
    },
    {
      "inputs": [
        {
          "internalType": "string",
          "name": "aboutme",
          "type": "string"
        }
      ],
      "name": "sendAboutMe",
      "outputs": [],
      "stateMutability": "nonpayable",
      "type": "function"
    }
  ],
  "bytecode": "0x608060405261153d806100136000396000f3fe608060405234801561001057600080fd5b50600436106100935760003560e01c8063a53c79dd11610066578063a53c79dd1461010e578063b3b82f3e1461012c578063caf35c491461014a578063e0fe048f1461017a578063eac7872e1461019857610093565b8063136621a7146100985780635b603ba0146100b65780638647380e146100d45780639fb1e62f146100f0575b600080fd5b6100a06101b6565b6040516100ad9190610fd9565b60405180910390f35b6100be610244565b6040516100cb9190611122565b60405180910390f35b6100ee60048036038101906100e99190610c86565b61024a565b005b6100f8610546565b6040516101059190611122565b60405180910390f35b610116610591565b6040516101239190610f8e565b60405180910390f35b6101346105bb565b6040516101419190610ffb565b60405180910390f35b610164600480360381019061015f9190610cc7565b61070c565b6040516101719190610f8e565b60405180910390f35b61018261074b565b60405161018f9190610f8e565b60405180910390f35b6101a0610771565b6040516101ad9190611122565b60405180910390f35b6060600480548060200260200160405190810160405280929190818152602001828054801561023a57602002820191906000526020600020905b8160009054906101000a900473ffffffffffffffffffffffffffffffffffffffff1673ffffffffffffffffffffffffffffffffffffffff16815260200190600101908083116101f0575b5050505050905090565b60035481565b426003819055506001600080828254610263919061123d565b9250508190555033600260006101000a81548173ffffffffffffffffffffffffffffffffffffffff021916908373ffffffffffffffffffffffffffffffffffffffff1602179055506102b5338261077b565b6102f56040518060400160405280601f81526020017f2573206a7573742073656e7420796f7520616e2061626f7574206d65202573008152503383610966565b60646001544244610306919061123d565b610310919061123d565b61031a9190611374565b6001819055506103616040518060400160405280601b81526020017f72616e646f6d206e756d6265722067656e6572617465643a2025640000000000815250600154610a05565b6032600154116104a7576103aa6040518060400160405280600981526020017f5072697a6520776f6e000000000000000000000000000000000000000000000081525033610aa1565b6000655af3107a40009050478111156103f8576040517f08c379a00000000000000000000000000000000000000000000000000000000081526004016103ef906110c2565b60405180910390fd5b60003373ffffffffffffffffffffffffffffffffffffffff168260405161041e90610f79565b60006040518083038185875af1925050503d806000811461045b576040519150601f19603f3d011682016040523d82523d6000602084013e610460565b606091505b50509050806104a4576040517f08c379a000000000000000000000000000000000000000000000000000000000815260040161049b90611102565b60405180910390fd5b50505b6004339080600181540180825580915050600190039060005260206000200160009091909190916101000a81548173ffffffffffffffffffffffffffffffffffffffff021916908373ffffffffffffffffffffffffffffffffffffffff1602179055507ff90776af5ac0ac5b8d3e7931f57523e37d71718e437df1eb090cde6b200426e1338260405161053b929190610fa9565b60405180910390a150565b60006105896040518060400160405280601e81526020017f5765206861766520256420706f74656e7469616c20656d706c6f796565730000815250600054610a05565b600054905090565b6000600260009054906101000a900473ffffffffffffffffffffffffffffffffffffffff16905090565b60606005805480602002602001604051908101604052809291908181526020016000905b8282101561070357838290600052602060002090600302016040518060600160405290816000820160009054906101000a900473ffffffffffffffffffffffffffffffffffffffff1673ffffffffffffffffffffffffffffffffffffffff1673ffffffffffffffffffffffffffffffffffffffff16815260200160018201805461066890611311565b80601f016020809104026020016040519081016040528092919081815260200182805461069490611311565b80156106e15780601f106106b6576101008083540402835291602001916106e1565b820191906000526020600020905b8154815290600101906020018083116106c457829003601f168201915b50505050508152602001600282015481525050815260200190600101906105df565b50505050905090565b6004818154811061071c57600080fd5b906000526020600020016000915054906101000a900473ffffffffffffffffffffffffffffffffffffffff1681565b600260009054906101000a900473ffffffffffffffffffffffffffffffffffffffff1681565b6000600354905090565b6000600660003373ffffffffffffffffffffffffffffffffffffffff1673ffffffffffffffffffffffffffffffffffffffff16815260200190815260200160002080546107c790611311565b905014610809576040517f08c379a0000000000000000000000000000000000000000000000000000000008152600401610800906110e2565b60405180910390fd5b80600660008473ffffffffffffffffffffffffffffffffffffffff1673ffffffffffffffffffffffffffffffffffffffff168152602001908152602001600020908051906020019061085c929190610b66565b50600560405180606001604052808473ffffffffffffffffffffffffffffffffffffffff16815260200183815260200142815250908060018154018082558091505060019003906000526020600020906003020160009091909190915060008201518160000160006101000a81548173ffffffffffffffffffffffffffffffffffffffff021916908373ffffffffffffffffffffffffffffffffffffffff160217905550602082015181600101908051906020019061091c929190610b66565b506040820151816002015550507ff90776af5ac0ac5b8d3e7931f57523e37d71718e437df1eb090cde6b200426e1828260405161095a929190610fa9565b60405180910390a15050565b610a0083838360405160240161097e9392919061104d565b6040516020818303038152906040527fe0e9ad4f000000000000000000000000000000000000000000000000000000007bffffffffffffffffffffffffffffffffffffffffffffffffffffffff19166020820180517bffffffffffffffffffffffffffffffffffffffffffffffffffffffff8381831617835250505050610b3d565b505050565b610a9d8282604051602401610a1b929190611092565b6040516020818303038152906040527f9710a9d0000000000000000000000000000000000000000000000000000000007bffffffffffffffffffffffffffffffffffffffffffffffffffffffff19166020820180517bffffffffffffffffffffffffffffffffffffffffffffffffffffffff8381831617835250505050610b3d565b5050565b610b398282604051602401610ab792919061101d565b6040516020818303038152906040527f319af333000000000000000000000000000000000000000000000000000000007bffffffffffffffffffffffffffffffffffffffffffffffffffffffff19166020820180517bffffffffffffffffffffffffffffffffffffffffffffffffffffffff8381831617835250505050610b3d565b5050565b60008151905060006a636f6e736f6c652e6c6f679050602083016000808483855afa5050505050565b828054610b7290611311565b90600052602060002090601f016020900481019282610b945760008555610bdb565b82601f10610bad57805160ff1916838001178555610bdb565b82800160010185558215610bdb579182015b82811115610bda578251825591602001919060010190610bbf565b5b509050610be89190610bec565b5090565b5b80821115610c05576000816000905550600101610bed565b5090565b6000610c1c610c1784611162565b61113d565b905082815260208101848484011115610c3457600080fd5b610c3f8482856112cf565b509392505050565b600082601f830112610c5857600080fd5b8135610c68848260208601610c09565b91505092915050565b600081359050610c80816114f0565b92915050565b600060208284031215610c9857600080fd5b600082013567ffffffffffffffff811115610cb257600080fd5b610cbe84828501610c47565b91505092915050565b600060208284031215610cd957600080fd5b6000610ce784828501610c71565b91505092915050565b6000610cfc8383610d1c565b60208301905092915050565b6000610d148383610f0b565b905092915050565b610d2581611293565b82525050565b610d3481611293565b82525050565b6000610d45826111b3565b610d4f81856111ee565b9350610d5a83611193565b8060005b83811015610d8b578151610d728882610cf0565b9750610d7d836111d4565b925050600181019050610d5e565b5085935050505092915050565b6000610da3826111be565b610dad81856111ff565b935083602082028501610dbf856111a3565b8060005b85811015610dfb5784840389528151610ddc8582610d08565b9450610de7836111e1565b925060208a01995050600181019050610dc3565b50829750879550505050505092915050565b6000610e18826111c9565b610e22818561121b565b9350610e328185602086016112de565b610e3b81611461565b840191505092915050565b6000610e51826111c9565b610e5b818561122c565b9350610e6b8185602086016112de565b610e7481611461565b840191505092915050565b6000610e8c60118361122c565b9150610e9782611472565b602082019050919050565b6000610eaf601d8361122c565b9150610eba8261149b565b602082019050919050565b6000610ed260108361122c565b9150610edd826114c4565b602082019050919050565b6000610ef5600083611210565b9150610f00826114ed565b600082019050919050565b6000606083016000830151610f236000860182610d1c565b5060208301518482036020860152610f3b8282610e0d565b9150506040830151610f506040860182610f5b565b508091505092915050565b610f64816112c5565b82525050565b610f73816112c5565b82525050565b6000610f8482610ee8565b9150819050919050565b6000602082019050610fa36000830184610d2b565b92915050565b6000604082019050610fbe6000830185610d2b565b8181036020830152610fd08184610e46565b90509392505050565b60006020820190508181036000830152610ff38184610d3a565b905092915050565b600060208201905081810360008301526110158184610d98565b905092915050565b600060408201905081810360008301526110378185610e46565b90506110466020830184610d2b565b9392505050565b600060608201905081810360008301526110678186610e46565b90506110766020830185610d2b565b81810360408301526110888184610e46565b9050949350505050565b600060408201905081810360008301526110ac8185610e46565b90506110bb6020830184610f6a565b9392505050565b600060208201905081810360008301526110db81610e7f565b9050919050565b600060208201905081810360008301526110fb81610ea2565b9050919050565b6000602082019050818103600083015261111b81610ec5565b9050919050565b60006020820190506111376000830184610f6a565b92915050565b6000611147611158565b90506111538282611343565b919050565b6000604051905090565b600067ffffffffffffffff82111561117d5761117c611432565b5b61118682611461565b9050602081019050919050565b6000819050602082019050919050565b6000819050602082019050919050565b600081519050919050565b600081519050919050565b600081519050919050565b6000602082019050919050565b6000602082019050919050565b600082825260208201905092915050565b600082825260208201905092915050565b600081905092915050565b600082825260208201905092915050565b600082825260208201905092915050565b6000611248826112c5565b9150611253836112c5565b9250827fffffffffffffffffffffffffffffffffffffffffffffffffffffffffffffffff03821115611288576112876113a5565b5b828201905092915050565b600061129e826112a5565b9050919050565b600073ffffffffffffffffffffffffffffffffffffffff82169050919050565b6000819050919050565b82818337600083830152505050565b60005b838110156112fc5780820151818401526020810190506112e1565b8381111561130b576000848401525b50505050565b6000600282049050600182168061132957607f821691505b6020821081141561133d5761133c611403565b5b50919050565b61134c82611461565b810181811067ffffffffffffffff8211171561136b5761136a611432565b5b80604052505050565b600061137f826112c5565b915061138a836112c5565b92508261139a576113996113d4565b5b828206905092915050565b7f4e487b7100000000000000000000000000000000000000000000000000000000600052601160045260246000fd5b7f4e487b7100000000000000000000000000000000000000000000000000000000600052601260045260246000fd5b7f4e487b7100000000000000000000000000000000000000000000000000000000600052602260045260246000fd5b7f4e487b7100000000000000000000000000000000000000000000000000000000600052604160045260246000fd5b6000601f19601f8301169050919050565b7f496e737566666369656e742066756e647a000000000000000000000000000000600082015250565b7f596f752063616e742073656e6420796f757220696e666f207477696365000000600082015250565b7f526577617264206e6f742073656e742100000000000000000000000000000000600082015250565b50565b6114f9816112c5565b811461150457600080fd5b5056fea26469706673582212209bd938c007a9e8bfce0564768e0f1069abff28ee88441ee3155d663b7ab6552064736f6c63430008040033",
  "linkReferences": {},
  "deployedLinkReferences": {}
}