{
    "_format": "hh-sol-artifact-1",
    "contractName": "WavePortal",
    "sourceName": "contracts/WavePortal.sol",
    "abi": [
        {
            "inputs": [],
            "stateMutability": "payable",
            "type": "constructor"
        },
        {
            "anonymous": false,
            "inputs": [
                {
                    "indexed": true,
                    "internalType": "address",
                    "name": "from",
                    "type": "address"
                },
                {
                    "indexed": false,
                    "internalType": "uint256",
                    "name": "timestamp",
                    "type": "uint256"
                },
                {
                    "indexed": false,
                    "internalType": "string",
                    "name": "message",
                    "type": "string"
                }
            ],
            "name": "NewWave",
            "type": "event"
        },
        {
            "inputs": [
                {
                    "internalType": "uint256",
                    "name": "",
                    "type": "uint256"
                }
            ],
            "name": "allSenderAddresses",
            "outputs": [
                {
                    "internalType": "address",
                    "name": "",
                    "type": "address"
                }
            ],
            "stateMutability": "view",
            "type": "function"
        },
        {
            "inputs": [],
            "name": "getAllWavesData",
            "outputs": [
                {
                    "components": [
                        {
                            "internalType": "address",
                            "name": "sender",
                            "type": "address"
                        },
                        {
                            "internalType": "uint256",
                            "name": "timestamp",
                            "type": "uint256"
                        },
                        {
                            "internalType": "string",
                            "name": "message",
                            "type": "string"
                        }
                    ],
                    "internalType": "struct WavePortal.Wave[]",
                    "name": "",
                    "type": "tuple[]"
                }
            ],
            "stateMutability": "view",
            "type": "function"
        },
        {
            "inputs": [],
            "name": "getLastLuckyWinner",
            "outputs": [
                {
                    "internalType": "address",
                    "name": "",
                    "type": "address"
                }
            ],
            "stateMutability": "view",
            "type": "function"
        },
        {
            "inputs": [],
            "name": "getLastWavedAddress",
            "outputs": [
                {
                    "internalType": "address",
                    "name": "",
                    "type": "address"
                }
            ],
            "stateMutability": "view",
            "type": "function"
        },
        {
            "inputs": [],
            "name": "getLastWavedTime",
            "outputs": [
                {
                    "internalType": "uint256",
                    "name": "",
                    "type": "uint256"
                }
            ],
            "stateMutability": "view",
            "type": "function"
        },
        {
            "inputs": [],
            "name": "getSendersList",
            "outputs": [
                {
                    "internalType": "address[]",
                    "name": "",
                    "type": "address[]"
                }
            ],
            "stateMutability": "view",
            "type": "function"
        },
        {
            "inputs": [],
            "name": "getWavesCount",
            "outputs": [
                {
                    "internalType": "uint256",
                    "name": "",
                    "type": "uint256"
                }
            ],
            "stateMutability": "view",
            "type": "function"
        },
        {
            "inputs": [
                {
                    "internalType": "address",
                    "name": "",
                    "type": "address"
                }
            ],
            "name": "lastWavedAt",
            "outputs": [
                {
                    "internalType": "uint256",
                    "name": "",
                    "type": "uint256"
                }
            ],
            "stateMutability": "view",
            "type": "function"
        },
        {
            "inputs": [],
            "name": "totalWaves",
            "outputs": [
                {
                    "internalType": "uint256",
                    "name": "",
                    "type": "uint256"
                }
            ],
            "stateMutability": "view",
            "type": "function"
        },
        {
            "inputs": [
                {
                    "internalType": "string",
                    "name": "_message",
                    "type": "string"
                }
            ],
            "name": "waveAtMe",
            "outputs": [],
            "stateMutability": "nonpayable",
            "type": "function"
        }
    ],
    "bytecode": "0x60806040526200004f6040518060400160405280601a81526020017f596f2c204920616d206120736d61727420636f6e7472616374210000000000008152506200007760201b6200097a1760201c565b606442446200005f9190620001c4565b6200006b919062000261565b60008190555062000308565b62000117816040516024016200008e919062000184565b6040516020818303038152906040527f41304fac000000000000000000000000000000000000000000000000000000007bffffffffffffffffffffffffffffffffffffffffffffffffffffffff19166020820180517bffffffffffffffffffffffffffffffffffffffffffffffffffffffff83818316178352505050506200011a60201b60201c565b50565b60008151905060006a636f6e736f6c652e6c6f679050602083016000808483855afa5050505050565b60006200015082620001a8565b6200015c8185620001b3565b93506200016e8185602086016200022b565b6200017981620002f7565b840191505092915050565b60006020820190508181036000830152620001a0818462000143565b905092915050565b600081519050919050565b600082825260208201905092915050565b6000620001d18262000221565b9150620001de8362000221565b9250827fffffffffffffffffffffffffffffffffffffffffffffffffffffffffffffffff0382111562000216576200021562000299565b5b828201905092915050565b6000819050919050565b60005b838110156200024b5780820151818401526020810190506200022e565b838111156200025b576000848401525b50505050565b60006200026e8262000221565b91506200027b8362000221565b9250826200028e576200028d620002c8565b5b828206905092915050565b7f4e487b7100000000000000000000000000000000000000000000000000000000600052601160045260246000fd5b7f4e487b7100000000000000000000000000000000000000000000000000000000600052601260045260246000fd5b6000601f19601f8301169050919050565b61165080620003186000396000f3fe608060405234801561001057600080fd5b506004361061009e5760003560e01c8063a42a466311610066578063a42a466314610137578063a53c79dd14610167578063caf35c4914610185578063d80eb37b146101b5578063eac7872e146101d35761009e565b8063136621a7146100a35780631f6e3786146100c1578063291bcab3146100df57806367f10646146100fd5780638a47f29e1461011b575b600080fd5b6100ab6101f1565b6040516100b89190610ff8565b60405180910390f35b6100c961027f565b6040516100d69190611133565b60405180910390f35b6100e76102ca565b6040516100f49190611133565b60405180910390f35b6101056102d0565b604051610112919061101a565b60405180910390f35b61013560048036038101906101309190610cd5565b610421565b005b610151600480360381019061014c9190610cac565b6108c5565b60405161015e9190611133565b60405180910390f35b61016f6108dd565b60405161017c9190610fdd565b60405180910390f35b61019f600480360381019061019a9190610d16565b610907565b6040516101ac9190610fdd565b60405180910390f35b6101bd610946565b6040516101ca9190610fdd565b60405180910390f35b6101db610970565b6040516101e89190611133565b60405180910390f35b6060600680548060200260200160405190810160405280929190818152602001828054801561027557602002820191906000526020600020905b8160009054906101000a900473ffffffffffffffffffffffffffffffffffffffff1673ffffffffffffffffffffffffffffffffffffffff168152602001906001019080831161022b575b5050505050905090565b60006102c26040518060400160405280601781526020017f596f75206861766520256420746f74616c207761766573000000000000000000815250600554610a13565b600554905090565b60055481565b60606004805480602002602001604051908101604052809291908181526020016000905b8282101561041857838290600052602060002090600302016040518060600160405290816000820160009054906101000a900473ffffffffffffffffffffffffffffffffffffffff1673ffffffffffffffffffffffffffffffffffffffff1673ffffffffffffffffffffffffffffffffffffffff1681526020016001820154815260200160028201805461038790611352565b80601f01602080910402602001604051908101604052809291908181526020018280546103b390611352565b80156104005780601f106103d557610100808354040283529160200191610400565b820191906000526020600020905b8154815290600101906020018083116103e357829003601f168201915b505050505081525050815260200190600101906102f4565b50505050905090565b42600f600760003373ffffffffffffffffffffffffffffffffffffffff1673ffffffffffffffffffffffffffffffffffffffff1681526020019081526020016000205461046e919061127e565b106104ae576040517f08c379a00000000000000000000000000000000000000000000000000000000081526004016104a590611113565b60405180910390fd5b42600760003373ffffffffffffffffffffffffffffffffffffffff1673ffffffffffffffffffffffffffffffffffffffff1681526020019081526020016000208190555060056000815480929190610505906113b5565b919050555061054a6040518060400160405280601681526020017f257320776176656420772f206d657373616765202573000000000000000000008152503383610aaf565b600460405180606001604052803373ffffffffffffffffffffffffffffffffffffffff16815260200142815260200183815250908060018154018082558091505060019003906000526020600020906003020160009091909190915060008201518160000160006101000a81548173ffffffffffffffffffffffffffffffffffffffff021916908373ffffffffffffffffffffffffffffffffffffffff160217905550602082015181600101556040820151816002019080519060200190610613929190610b77565b50505060646000544244610627919061127e565b610631919061127e565b61063b91906113fe565b6000819055506032600054116107c7576000655af3107a4000905047811115610699576040517f08c379a0000000000000000000000000000000000000000000000000000000008152600401610690906110d3565b60405180910390fd5b60003373ffffffffffffffffffffffffffffffffffffffff16826040516106bf90610fc8565b60006040518083038185875af1925050503d80600081146106fc576040519150601f19603f3d011682016040523d82523d6000602084013e610701565b606091505b5050905080610745576040517f08c379a000000000000000000000000000000000000000000000000000000000815260040161073c906110f3565b60405180910390fd5b33600160006101000a81548173ffffffffffffffffffffffffffffffffffffffff021916908373ffffffffffffffffffffffffffffffffffffffff1602179055506107c46040518060400160405280600f81526020017f576f6e20736f6d6520657468657273000000000000000000000000000000000081525061097a565b50505b3373ffffffffffffffffffffffffffffffffffffffff167f5f7e16dc676677766a70e9c5628aa6c54ddb8b6e5188e2ae1e1f17f1ffbea716428360405161080f92919061114e565b60405180910390a26006339080600181540180825580915050600190039060005260206000200160009091909190916101000a81548173ffffffffffffffffffffffffffffffffffffffff021916908373ffffffffffffffffffffffffffffffffffffffff16021790555033600260006101000a81548173ffffffffffffffffffffffffffffffffffffffff021916908373ffffffffffffffffffffffffffffffffffffffff1602179055504260038190555050565b60076020528060005260406000206000915090505481565b6000600260009054906101000a900473ffffffffffffffffffffffffffffffffffffffff16905090565b6006818154811061091757600080fd5b906000526020600020016000915054906101000a900473ffffffffffffffffffffffffffffffffffffffff1681565b6000600160009054906101000a900473ffffffffffffffffffffffffffffffffffffffff16905090565b6000600354905090565b610a108160405160240161098e919061103c565b6040516020818303038152906040527f41304fac000000000000000000000000000000000000000000000000000000007bffffffffffffffffffffffffffffffffffffffffffffffffffffffff19166020820180517bffffffffffffffffffffffffffffffffffffffffffffffffffffffff8381831617835250505050610b4e565b50565b610aab8282604051602401610a299291906110a3565b6040516020818303038152906040527f9710a9d0000000000000000000000000000000000000000000000000000000007bffffffffffffffffffffffffffffffffffffffffffffffffffffffff19166020820180517bffffffffffffffffffffffffffffffffffffffffffffffffffffffff8381831617835250505050610b4e565b5050565b610b49838383604051602401610ac79392919061105e565b6040516020818303038152906040527fe0e9ad4f000000000000000000000000000000000000000000000000000000007bffffffffffffffffffffffffffffffffffffffffffffffffffffffff19166020820180517bffffffffffffffffffffffffffffffffffffffffffffffffffffffff8381831617835250505050610b4e565b505050565b60008151905060006a636f6e736f6c652e6c6f679050602083016000808483855afa5050505050565b828054610b8390611352565b90600052602060002090601f016020900481019282610ba55760008555610bec565b82601f10610bbe57805160ff1916838001178555610bec565b82800160010185558215610bec579182015b82811115610beb578251825591602001919060010190610bd0565b5b509050610bf99190610bfd565b5090565b5b80821115610c16576000816000905550600101610bfe565b5090565b6000610c2d610c28846111a3565b61117e565b905082815260208101848484011115610c4557600080fd5b610c50848285611310565b509392505050565b600081359050610c67816115ec565b92915050565b600082601f830112610c7e57600080fd5b8135610c8e848260208601610c1a565b91505092915050565b600081359050610ca681611603565b92915050565b600060208284031215610cbe57600080fd5b6000610ccc84828501610c58565b91505092915050565b600060208284031215610ce757600080fd5b600082013567ffffffffffffffff811115610d0157600080fd5b610d0d84828501610c6d565b91505092915050565b600060208284031215610d2857600080fd5b6000610d3684828501610c97565b91505092915050565b6000610d4b8383610d6b565b60208301905092915050565b6000610d638383610f5a565b905092915050565b610d74816112d4565b82525050565b610d83816112d4565b82525050565b6000610d94826111f4565b610d9e818561122f565b9350610da9836111d4565b8060005b83811015610dda578151610dc18882610d3f565b9750610dcc83611215565b925050600181019050610dad565b5085935050505092915050565b6000610df2826111ff565b610dfc8185611240565b935083602082028501610e0e856111e4565b8060005b85811015610e4a5784840389528151610e2b8582610d57565b9450610e3683611222565b925060208a01995050600181019050610e12565b50829750879550505050505092915050565b6000610e678261120a565b610e71818561125c565b9350610e8181856020860161131f565b610e8a816114eb565b840191505092915050565b6000610ea08261120a565b610eaa818561126d565b9350610eba81856020860161131f565b610ec3816114eb565b840191505092915050565b6000610edb60348361126d565b9150610ee6826114fc565b604082019050919050565b6000610efe60278361126d565b9150610f098261154b565b604082019050919050565b6000610f21600083611251565b9150610f2c8261159a565b600082019050919050565b6000610f4460298361126d565b9150610f4f8261159d565b604082019050919050565b6000606083016000830151610f726000860182610d6b565b506020830151610f856020860182610faa565b5060408301518482036040860152610f9d8282610e5c565b9150508091505092915050565b610fb381611306565b82525050565b610fc281611306565b82525050565b6000610fd382610f14565b9150819050919050565b6000602082019050610ff26000830184610d7a565b92915050565b600060208201905081810360008301526110128184610d89565b905092915050565b600060208201905081810360008301526110348184610de7565b905092915050565b600060208201905081810360008301526110568184610e95565b905092915050565b600060608201905081810360008301526110788186610e95565b90506110876020830185610d7a565b81810360408301526110998184610e95565b9050949350505050565b600060408201905081810360008301526110bd8185610e95565b90506110cc6020830184610fb9565b9392505050565b600060208201905081810360008301526110ec81610ece565b9050919050565b6000602082019050818103600083015261110c81610ef1565b9050919050565b6000602082019050818103600083015261112c81610f37565b9050919050565b60006020820190506111486000830184610fb9565b92915050565b60006040820190506111636000830185610fb9565b81810360208301526111758184610e95565b90509392505050565b6000611188611199565b90506111948282611384565b919050565b6000604051905090565b600067ffffffffffffffff8211156111be576111bd6114bc565b5b6111c7826114eb565b9050602081019050919050565b6000819050602082019050919050565b6000819050602082019050919050565b600081519050919050565b600081519050919050565b600081519050919050565b6000602082019050919050565b6000602082019050919050565b600082825260208201905092915050565b600082825260208201905092915050565b600081905092915050565b600082825260208201905092915050565b600082825260208201905092915050565b600061128982611306565b915061129483611306565b9250827fffffffffffffffffffffffffffffffffffffffffffffffffffffffffffffffff038211156112c9576112c861142f565b5b828201905092915050565b60006112df826112e6565b9050919050565b600073ffffffffffffffffffffffffffffffffffffffff82169050919050565b6000819050919050565b82818337600083830152505050565b60005b8381101561133d578082015181840152602081019050611322565b8381111561134c576000848401525b50505050565b6000600282049050600182168061136a57607f821691505b6020821081141561137e5761137d61148d565b5b50919050565b61138d826114eb565b810181811067ffffffffffffffff821117156113ac576113ab6114bc565b5b80604052505050565b60006113c082611306565b91507fffffffffffffffffffffffffffffffffffffffffffffffffffffffffffffffff8214156113f3576113f261142f565b5b600182019050919050565b600061140982611306565b915061141483611306565b9250826114245761142361145e565b5b828206905092915050565b7f4e487b7100000000000000000000000000000000000000000000000000000000600052601160045260246000fd5b7f4e487b7100000000000000000000000000000000000000000000000000000000600052601260045260246000fd5b7f4e487b7100000000000000000000000000000000000000000000000000000000600052602260045260246000fd5b7f4e487b7100000000000000000000000000000000000000000000000000000000600052604160045260246000fd5b6000601f19601f8301169050919050565b7f547279696e6720746f207769746864726177206d6f7265206d6f6e657920746860008201527f616e2074686520636f6e7472616374206861732e000000000000000000000000602082015250565b7f4661696c656420746f207769746864726177206d6f6e65792066726f6d20636f60008201527f6e74726163742e00000000000000000000000000000000000000000000000000602082015250565b50565b7f4d7573742077616974203135207365636f6e6473206265666f7265207761766960008201527f6e6720616761696e2e0000000000000000000000000000000000000000000000602082015250565b6115f5816112d4565b811461160057600080fd5b50565b61160c81611306565b811461161757600080fd5b5056fea2646970667358221220ab79afad83d0726dbadbd886a6bd0b04852dcdd90ab1d5a1a30673fee01a203f64736f6c63430008040033",
    "linkReferences": {},
    "deployedLinkReferences": {}
}